{
  "_format": "hh-sol-artifact-1",
  "contractName": "Descrow",
  "sourceName": "contracts/Descrow.sol",
  "abi": [
    {
      "inputs": [
        {
          "internalType": "address payable",
          "name": "_buyerParty",
          "type": "address"
        },
        {
          "internalType": "address payable",
          "name": "_sellerParty",
          "type": "address"
        },
        {
          "internalType": "uint256",
          "name": "_price",
          "type": "uint256"
        }
      ],
      "stateMutability": "nonpayable",
      "type": "constructor"
    },
    {
      "anonymous": false,
      "inputs": [
        {
          "indexed": true,
          "internalType": "address",
          "name": "buyer",
          "type": "address"
        },
        {
          "indexed": true,
          "internalType": "address",
          "name": "seller",
          "type": "address"
        },
        {
          "components": [
            {
              "internalType": "address",
              "name": "buyer",
              "type": "address"
            },
            {
              "internalType": "address",
              "name": "seller",
              "type": "address"
            },
            {
              "internalType": "uint256",
              "name": "salePrice",
              "type": "uint256"
            },
            {
              "internalType": "bool",
              "name": "buyerStake",
              "type": "bool"
            },
            {
              "internalType": "bool",
              "name": "sellerStake",
              "type": "bool"
            },
            {
              "internalType": "bool",
              "name": "buyerCancel",
              "type": "bool"
            },
            {
              "internalType": "bool",
              "name": "sellerCancel",
              "type": "bool"
            },
            {
              "internalType": "bool",
              "name": "active",
              "type": "bool"
            },
            {
              "internalType": "bool",
              "name": "cancelled",
              "type": "bool"
            },
            {
              "internalType": "address",
              "name": "conAddr",
              "type": "address"
            }
          ],
          "indexed": false,
          "internalType": "struct Descrow.ContractStatus",
          "name": "state",
          "type": "tuple"
        }
      ],
      "name": "ContractStateChanged",
      "type": "event"
    },
    {
      "inputs": [],
      "name": "cancel",
      "outputs": [],
      "stateMutability": "payable",
      "type": "function"
    },
    {
      "inputs": [],
      "name": "confirm",
      "outputs": [],
      "stateMutability": "payable",
      "type": "function"
    },
    {
      "inputs": [],
      "name": "contractAddress",
      "outputs": [
        {
          "internalType": "address",
          "name": "",
          "type": "address"
        }
      ],
      "stateMutability": "view",
      "type": "function"
    },
    {
      "inputs": [],
      "name": "getStatus",
      "outputs": [
        {
          "components": [
            {
              "internalType": "address",
              "name": "buyer",
              "type": "address"
            },
            {
              "internalType": "address",
              "name": "seller",
              "type": "address"
            },
            {
              "internalType": "uint256",
              "name": "salePrice",
              "type": "uint256"
            },
            {
              "internalType": "bool",
              "name": "buyerStake",
              "type": "bool"
            },
            {
              "internalType": "bool",
              "name": "sellerStake",
              "type": "bool"
            },
            {
              "internalType": "bool",
              "name": "buyerCancel",
              "type": "bool"
            },
            {
              "internalType": "bool",
              "name": "sellerCancel",
              "type": "bool"
            },
            {
              "internalType": "bool",
              "name": "active",
              "type": "bool"
            },
            {
              "internalType": "bool",
              "name": "cancelled",
              "type": "bool"
            },
            {
              "internalType": "address",
              "name": "conAddr",
              "type": "address"
            }
          ],
          "internalType": "struct Descrow.ContractStatus",
          "name": "",
          "type": "tuple"
        }
      ],
      "stateMutability": "view",
      "type": "function"
    },
    {
      "inputs": [],
      "name": "revokeCancellation",
      "outputs": [],
      "stateMutability": "nonpayable",
      "type": "function"
    },
    {
      "inputs": [],
      "name": "revokeStake",
      "outputs": [],
      "stateMutability": "payable",
      "type": "function"
    },
    {
      "inputs": [],
      "name": "stake",
      "outputs": [],
      "stateMutability": "payable",
      "type": "function"
    }
  ],
  "bytecode": "0x60806040523480156200001157600080fd5b50604051620032d7380380620032d78339818101604052810190620000379190620002c4565b8173ffffffffffffffffffffffffffffffffffffffff168373ffffffffffffffffffffffffffffffffffffffff161415620000a9576040517f08c379a0000000000000000000000000000000000000000000000000000000008152600401620000a09062000341565b60405180910390fd5b826000806101000a81548173ffffffffffffffffffffffffffffffffffffffff021916908373ffffffffffffffffffffffffffffffffffffffff16021790555081600160006101000a81548173ffffffffffffffffffffffffffffffffffffffff021916908373ffffffffffffffffffffffffffffffffffffffff160217905550806002819055506200014d600280546200027e60201b620023011790919060201c565b600360008060009054906101000a900473ffffffffffffffffffffffffffffffffffffffff1673ffffffffffffffffffffffffffffffffffffffff1673ffffffffffffffffffffffffffffffffffffffff1681526020019081526020016000208190555060025460036000600160009054906101000a900473ffffffffffffffffffffffffffffffffffffffff1673ffffffffffffffffffffffffffffffffffffffff1673ffffffffffffffffffffffffffffffffffffffff168152602001908152602001600020819055506001600660006101000a81548160ff02191690831515021790555030600660026101000a81548173ffffffffffffffffffffffffffffffffffffffff021916908373ffffffffffffffffffffffffffffffffffffffff160217905550505050620004c5565b600081836200028e919062000374565b905092915050565b600081519050620002a78162000491565b92915050565b600081519050620002be81620004ab565b92915050565b600080600060608486031215620002da57600080fd5b6000620002ea8682870162000296565b9350506020620002fd8682870162000296565b92505060406200031086828701620002ad565b9150509250925092565b60006200032960228362000363565b9150620003368262000442565b604082019050919050565b600060208201905081810360008301526200035c816200031a565b9050919050565b600082825260208201905092915050565b6000620003818262000409565b91506200038e8362000409565b9250817fffffffffffffffffffffffffffffffffffffffffffffffffffffffffffffffff0483118215151615620003ca57620003c962000413565b5b828202905092915050565b6000620003e282620003e9565b9050919050565b600073ffffffffffffffffffffffffffffffffffffffff82169050919050565b6000819050919050565b7f4e487b7100000000000000000000000000000000000000000000000000000000600052601160045260246000fd5b7f427579657220616e642073656c6c65722063616e27742062652074686520736160008201527f6d65000000000000000000000000000000000000000000000000000000000000602082015250565b6200049c81620003d5565b8114620004a857600080fd5b50565b620004b68162000409565b8114620004c257600080fd5b50565b612e0280620004d56000396000f3fe6080604052600436106100705760003560e01c80634f4b5e661161004e5780634f4b5e66146100b45780637022b58e146100cb578063ea8a1af0146100d5578063f6b4dfb4146100df57610070565b80632a1440d6146100755780633a4b66f11461007f5780634e69d56014610089575b600080fd5b61007d61010a565b005b610087610679565b005b34801561009557600080fd5b5061009e610af6565b6040516100ab91906128bd565b60405180910390f35b3480156100c057600080fd5b506100c9610dd1565b005b6100d36111cd565b005b6100dd611940565b005b3480156100eb57600080fd5b506100f46122db565b60405161010191906126e2565b60405180910390f35b60008054906101000a900473ffffffffffffffffffffffffffffffffffffffff1673ffffffffffffffffffffffffffffffffffffffff163373ffffffffffffffffffffffffffffffffffffffff1614806101b15750600160009054906101000a900473ffffffffffffffffffffffffffffffffffffffff1673ffffffffffffffffffffffffffffffffffffffff163373ffffffffffffffffffffffffffffffffffffffff16145b6101f0576040517f08c379a00000000000000000000000000000000000000000000000000000000081526004016101e79061275d565b60405180910390fd5b600660009054906101000a900460ff1661023f576040517f08c379a0000000000000000000000000000000000000000000000000000000008152600401610236906127fd565b60405180910390fd5b600080600460008060009054906101000a900473ffffffffffffffffffffffffffffffffffffffff1673ffffffffffffffffffffffffffffffffffffffff1673ffffffffffffffffffffffffffffffffffffffff16815260200190815260200160002060009054906101000a900460ff168015610327575060046000600160009054906101000a900473ffffffffffffffffffffffffffffffffffffffff1673ffffffffffffffffffffffffffffffffffffffff1673ffffffffffffffffffffffffffffffffffffffff16815260200190815260200160002060009054906101000a900460ff165b90508115158115151461036f576040517f08c379a0000000000000000000000000000000000000000000000000000000008152600401610366906127bd565b60405180910390fd5b6000479050600460003373ffffffffffffffffffffffffffffffffffffffff1673ffffffffffffffffffffffffffffffffffffffff16815260200190815260200160002060009054906101000a900460ff16610400576040517f08c379a00000000000000000000000000000000000000000000000000000000081526004016103f79061279d565b60405180910390fd5b600360003373ffffffffffffffffffffffffffffffffffffffff1673ffffffffffffffffffffffffffffffffffffffff16815260200190815260200160002054811015610482576040517f08c379a0000000000000000000000000000000000000000000000000000000008152600401610479906126fd565b60405180910390fd5b60003373ffffffffffffffffffffffffffffffffffffffff16600360003373ffffffffffffffffffffffffffffffffffffffff1673ffffffffffffffffffffffffffffffffffffffff168152602001908152602001600020546040516104e7906126cd565b60006040518083038185875af1925050503d8060008114610524576040519150601f19603f3d011682016040523d82523d6000602084013e610529565b606091505b505090508061056d576040517f08c379a00000000000000000000000000000000000000000000000000000000081526004016105649061283d565b60405180910390fd5b6000600460003373ffffffffffffffffffffffffffffffffffffffff1673ffffffffffffffffffffffffffffffffffffffff16815260200190815260200160002060006101000a81548160ff021916908315150217905550600160009054906101000a900473ffffffffffffffffffffffffffffffffffffffff1673ffffffffffffffffffffffffffffffffffffffff1660008054906101000a900473ffffffffffffffffffffffffffffffffffffffff1673ffffffffffffffffffffffffffffffffffffffff167fc63a1af9370a721075a81436ad0aff90da703ecd614033082ce7fc756ffc7cef61065e610af6565b60405161066b91906128bd565b60405180910390a350505050565b60008054906101000a900473ffffffffffffffffffffffffffffffffffffffff1673ffffffffffffffffffffffffffffffffffffffff163373ffffffffffffffffffffffffffffffffffffffff1614806107205750600160009054906101000a900473ffffffffffffffffffffffffffffffffffffffff1673ffffffffffffffffffffffffffffffffffffffff163373ffffffffffffffffffffffffffffffffffffffff16145b61075f576040517f08c379a00000000000000000000000000000000000000000000000000000000081526004016107569061275d565b60405180910390fd5b600660009054906101000a900460ff166107ae576040517f08c379a00000000000000000000000000000000000000000000000000000000081526004016107a5906127fd565b60405180910390fd5b600080600460008060009054906101000a900473ffffffffffffffffffffffffffffffffffffffff1673ffffffffffffffffffffffffffffffffffffffff1673ffffffffffffffffffffffffffffffffffffffff16815260200190815260200160002060009054906101000a900460ff168015610896575060046000600160009054906101000a900473ffffffffffffffffffffffffffffffffffffffff1673ffffffffffffffffffffffffffffffffffffffff1673ffffffffffffffffffffffffffffffffffffffff16815260200190815260200160002060009054906101000a900460ff165b9050811515811515146108de576040517f08c379a00000000000000000000000000000000000000000000000000000000081526004016108d5906127bd565b60405180910390fd5b600460003373ffffffffffffffffffffffffffffffffffffffff1673ffffffffffffffffffffffffffffffffffffffff16815260200190815260200160002060009054906101000a900460ff161561096b576040517f08c379a00000000000000000000000000000000000000000000000000000000081526004016109629061289d565b60405180910390fd5b600360003373ffffffffffffffffffffffffffffffffffffffff1673ffffffffffffffffffffffffffffffffffffffff1681526020019081526020016000205434146109ec576040517f08c379a00000000000000000000000000000000000000000000000000000000081526004016109e39061273d565b60405180910390fd5b6001600460003373ffffffffffffffffffffffffffffffffffffffff1673ffffffffffffffffffffffffffffffffffffffff16815260200190815260200160002060006101000a81548160ff021916908315150217905550600160009054906101000a900473ffffffffffffffffffffffffffffffffffffffff1673ffffffffffffffffffffffffffffffffffffffff1660008054906101000a900473ffffffffffffffffffffffffffffffffffffffff1673ffffffffffffffffffffffffffffffffffffffff167fc63a1af9370a721075a81436ad0aff90da703ecd614033082ce7fc756ffc7cef610add610af6565b604051610aea91906128bd565b60405180910390a35050565b610afe612317565b60405180610140016040528060008054906101000a900473ffffffffffffffffffffffffffffffffffffffff1673ffffffffffffffffffffffffffffffffffffffff168152602001600160009054906101000a900473ffffffffffffffffffffffffffffffffffffffff1673ffffffffffffffffffffffffffffffffffffffff1681526020016002548152602001600460008060009054906101000a900473ffffffffffffffffffffffffffffffffffffffff1673ffffffffffffffffffffffffffffffffffffffff1673ffffffffffffffffffffffffffffffffffffffff16815260200190815260200160002060009054906101000a900460ff161515815260200160046000600160009054906101000a900473ffffffffffffffffffffffffffffffffffffffff1673ffffffffffffffffffffffffffffffffffffffff1673ffffffffffffffffffffffffffffffffffffffff16815260200190815260200160002060009054906101000a900460ff1615158152602001600560008060009054906101000a900473ffffffffffffffffffffffffffffffffffffffff1673ffffffffffffffffffffffffffffffffffffffff1673ffffffffffffffffffffffffffffffffffffffff16815260200190815260200160002060009054906101000a900460ff161515815260200160056000600160009054906101000a900473ffffffffffffffffffffffffffffffffffffffff1673ffffffffffffffffffffffffffffffffffffffff1673ffffffffffffffffffffffffffffffffffffffff16815260200190815260200160002060009054906101000a900460ff1615158152602001600660009054906101000a900460ff1615158152602001600660019054906101000a900460ff1615158152602001600660029054906101000a900473ffffffffffffffffffffffffffffffffffffffff1673ffffffffffffffffffffffffffffffffffffffff16815250905090565b60008054906101000a900473ffffffffffffffffffffffffffffffffffffffff1673ffffffffffffffffffffffffffffffffffffffff163373ffffffffffffffffffffffffffffffffffffffff161480610e785750600160009054906101000a900473ffffffffffffffffffffffffffffffffffffffff1673ffffffffffffffffffffffffffffffffffffffff163373ffffffffffffffffffffffffffffffffffffffff16145b610eb7576040517f08c379a0000000000000000000000000000000000000000000000000000000008152600401610eae9061275d565b60405180910390fd5b600660009054906101000a900460ff16610f06576040517f08c379a0000000000000000000000000000000000000000000000000000000008152600401610efd906127fd565b60405180910390fd5b60016000600460008060009054906101000a900473ffffffffffffffffffffffffffffffffffffffff1673ffffffffffffffffffffffffffffffffffffffff1673ffffffffffffffffffffffffffffffffffffffff16815260200190815260200160002060009054906101000a900460ff168015610fef575060046000600160009054906101000a900473ffffffffffffffffffffffffffffffffffffffff1673ffffffffffffffffffffffffffffffffffffffff1673ffffffffffffffffffffffffffffffffffffffff16815260200190815260200160002060009054906101000a900460ff165b905081151581151514611037576040517f08c379a000000000000000000000000000000000000000000000000000000000815260040161102e906127bd565b60405180910390fd5b600560003373ffffffffffffffffffffffffffffffffffffffff1673ffffffffffffffffffffffffffffffffffffffff16815260200190815260200160002060009054906101000a900460ff166110c3576040517f08c379a00000000000000000000000000000000000000000000000000000000081526004016110ba9061285d565b60405180910390fd5b6000600560003373ffffffffffffffffffffffffffffffffffffffff1673ffffffffffffffffffffffffffffffffffffffff16815260200190815260200160002060006101000a81548160ff021916908315150217905550600160009054906101000a900473ffffffffffffffffffffffffffffffffffffffff1673ffffffffffffffffffffffffffffffffffffffff1660008054906101000a900473ffffffffffffffffffffffffffffffffffffffff1673ffffffffffffffffffffffffffffffffffffffff167fc63a1af9370a721075a81436ad0aff90da703ecd614033082ce7fc756ffc7cef6111b4610af6565b6040516111c191906128bd565b60405180910390a35050565b60008054906101000a900473ffffffffffffffffffffffffffffffffffffffff1673ffffffffffffffffffffffffffffffffffffffff163373ffffffffffffffffffffffffffffffffffffffff161461125b576040517f08c379a0000000000000000000000000000000000000000000000000000000008152600401611252906127dd565b60405180910390fd5b600660009054906101000a900460ff166112aa576040517f08c379a00000000000000000000000000000000000000000000000000000000081526004016112a1906127fd565b60405180910390fd5b60016000600460008060009054906101000a900473ffffffffffffffffffffffffffffffffffffffff1673ffffffffffffffffffffffffffffffffffffffff1673ffffffffffffffffffffffffffffffffffffffff16815260200190815260200160002060009054906101000a900460ff168015611393575060046000600160009054906101000a900473ffffffffffffffffffffffffffffffffffffffff1673ffffffffffffffffffffffffffffffffffffffff1673ffffffffffffffffffffffffffffffffffffffff16815260200190815260200160002060009054906101000a900460ff165b9050811515811515146113db576040517f08c379a00000000000000000000000000000000000000000000000000000000081526004016113d2906127bd565b60405180910390fd5b600560008060009054906101000a900473ffffffffffffffffffffffffffffffffffffffff1673ffffffffffffffffffffffffffffffffffffffff1673ffffffffffffffffffffffffffffffffffffffff16815260200190815260200160002060009054906101000a900460ff161580156114c2575060056000600160009054906101000a900473ffffffffffffffffffffffffffffffffffffffff1673ffffffffffffffffffffffffffffffffffffffff1673ffffffffffffffffffffffffffffffffffffffff16815260200190815260200160002060009054906101000a900460ff16155b611501576040517f08c379a00000000000000000000000000000000000000000000000000000000081526004016114f89061277d565b60405180910390fd5b611517600360025461230190919063ffffffff16565b471015611559576040517f08c379a00000000000000000000000000000000000000000000000000000000081526004016115509061287d565b60405180910390fd5b60008060009054906101000a900473ffffffffffffffffffffffffffffffffffffffff1673ffffffffffffffffffffffffffffffffffffffff1660036000600160009054906101000a900473ffffffffffffffffffffffffffffffffffffffff1673ffffffffffffffffffffffffffffffffffffffff1673ffffffffffffffffffffffffffffffffffffffff16815260200190815260200160002054604051611601906126cd565b60006040518083038185875af1925050503d806000811461163e576040519150601f19603f3d011682016040523d82523d6000602084013e611643565b606091505b505090506000600160009054906101000a900473ffffffffffffffffffffffffffffffffffffffff1673ffffffffffffffffffffffffffffffffffffffff16600360008060009054906101000a900473ffffffffffffffffffffffffffffffffffffffff1673ffffffffffffffffffffffffffffffffffffffff1673ffffffffffffffffffffffffffffffffffffffff168152602001908152602001600020546040516116ef906126cd565b60006040518083038185875af1925050503d806000811461172c576040519150601f19603f3d011682016040523d82523d6000602084013e611731565b606091505b5050905081801561173f5750805b61177e576040517f08c379a00000000000000000000000000000000000000000000000000000000081526004016117759061281d565b60405180910390fd5b6000600460008060009054906101000a900473ffffffffffffffffffffffffffffffffffffffff1673ffffffffffffffffffffffffffffffffffffffff1673ffffffffffffffffffffffffffffffffffffffff16815260200190815260200160002060006101000a81548160ff021916908315150217905550600060046000600160009054906101000a900473ffffffffffffffffffffffffffffffffffffffff1673ffffffffffffffffffffffffffffffffffffffff1673ffffffffffffffffffffffffffffffffffffffff16815260200190815260200160002060006101000a81548160ff0219169083151502179055506000600660006101000a81548160ff021916908315150217905550600160009054906101000a900473ffffffffffffffffffffffffffffffffffffffff1673ffffffffffffffffffffffffffffffffffffffff1660008054906101000a900473ffffffffffffffffffffffffffffffffffffffff1673ffffffffffffffffffffffffffffffffffffffff167fc63a1af9370a721075a81436ad0aff90da703ecd614033082ce7fc756ffc7cef611925610af6565b60405161193291906128bd565b60405180910390a350505050565b60008054906101000a900473ffffffffffffffffffffffffffffffffffffffff1673ffffffffffffffffffffffffffffffffffffffff163373ffffffffffffffffffffffffffffffffffffffff1614806119e75750600160009054906101000a900473ffffffffffffffffffffffffffffffffffffffff1673ffffffffffffffffffffffffffffffffffffffff163373ffffffffffffffffffffffffffffffffffffffff16145b611a26576040517f08c379a0000000000000000000000000000000000000000000000000000000008152600401611a1d9061275d565b60405180910390fd5b600660009054906101000a900460ff16611a75576040517f08c379a0000000000000000000000000000000000000000000000000000000008152600401611a6c906127fd565b60405180910390fd5b60016000600460008060009054906101000a900473ffffffffffffffffffffffffffffffffffffffff1673ffffffffffffffffffffffffffffffffffffffff1673ffffffffffffffffffffffffffffffffffffffff16815260200190815260200160002060009054906101000a900460ff168015611b5e575060046000600160009054906101000a900473ffffffffffffffffffffffffffffffffffffffff1673ffffffffffffffffffffffffffffffffffffffff1673ffffffffffffffffffffffffffffffffffffffff16815260200190815260200160002060009054906101000a900460ff165b905081151581151514611ba6576040517f08c379a0000000000000000000000000000000000000000000000000000000008152600401611b9d906127bd565b60405180910390fd5b600560003373ffffffffffffffffffffffffffffffffffffffff1673ffffffffffffffffffffffffffffffffffffffff16815260200190815260200160002060009054906101000a900460ff1615611c33576040517f08c379a0000000000000000000000000000000000000000000000000000000008152600401611c2a9061271d565b60405180910390fd5b6001600560003373ffffffffffffffffffffffffffffffffffffffff1673ffffffffffffffffffffffffffffffffffffffff16815260200190815260200160002060006101000a81548160ff021916908315150217905550600560008060009054906101000a900473ffffffffffffffffffffffffffffffffffffffff1673ffffffffffffffffffffffffffffffffffffffff1673ffffffffffffffffffffffffffffffffffffffff16815260200190815260200160002060009054906101000a900460ff168015611d70575060056000600160009054906101000a900473ffffffffffffffffffffffffffffffffffffffff1673ffffffffffffffffffffffffffffffffffffffff1673ffffffffffffffffffffffffffffffffffffffff16815260200190815260200160002060009054906101000a900460ff165b1561222957611d8b600360025461230190919063ffffffff16565b471015611dcd576040517f08c379a0000000000000000000000000000000000000000000000000000000008152600401611dc49061287d565b60405180910390fd5b60008060009054906101000a900473ffffffffffffffffffffffffffffffffffffffff1673ffffffffffffffffffffffffffffffffffffffff16600360008060009054906101000a900473ffffffffffffffffffffffffffffffffffffffff1673ffffffffffffffffffffffffffffffffffffffff1673ffffffffffffffffffffffffffffffffffffffff16815260200190815260200160002054604051611e74906126cd565b60006040518083038185875af1925050503d8060008114611eb1576040519150601f19603f3d011682016040523d82523d6000602084013e611eb6565b606091505b505090506000600160009054906101000a900473ffffffffffffffffffffffffffffffffffffffff1673ffffffffffffffffffffffffffffffffffffffff1660036000600160009054906101000a900473ffffffffffffffffffffffffffffffffffffffff1673ffffffffffffffffffffffffffffffffffffffff1673ffffffffffffffffffffffffffffffffffffffff16815260200190815260200160002054604051611f63906126cd565b60006040518083038185875af1925050503d8060008114611fa0576040519150601f19603f3d011682016040523d82523d6000602084013e611fa5565b606091505b50509050818015611fb35750805b611ff2576040517f08c379a0000000000000000000000000000000000000000000000000000000008152600401611fe99061281d565b60405180910390fd5b6000604051806040016040528060008054906101000a900473ffffffffffffffffffffffffffffffffffffffff1673ffffffffffffffffffffffffffffffffffffffff1673ffffffffffffffffffffffffffffffffffffffff168152602001600160009054906101000a900473ffffffffffffffffffffffffffffffffffffffff1673ffffffffffffffffffffffffffffffffffffffff1673ffffffffffffffffffffffffffffffffffffffff16815250905060005b60028110156121ee576000600560008484600281106120f0577f4e487b7100000000000000000000000000000000000000000000000000000000600052603260045260246000fd5b602002015173ffffffffffffffffffffffffffffffffffffffff1673ffffffffffffffffffffffffffffffffffffffff16815260200190815260200160002060006101000a81548160ff021916908315150217905550600060046000848460028110612185577f4e487b7100000000000000000000000000000000000000000000000000000000600052603260045260246000fd5b602002015173ffffffffffffffffffffffffffffffffffffffff1673ffffffffffffffffffffffffffffffffffffffff16815260200190815260200160002060006101000a81548160ff02191690831515021790555080806121e690612997565b9150506120a8565b506000600660006101000a81548160ff0219169083151502179055506001600660016101000a81548160ff0219169083151502179055505050505b600160009054906101000a900473ffffffffffffffffffffffffffffffffffffffff1673ffffffffffffffffffffffffffffffffffffffff1660008054906101000a900473ffffffffffffffffffffffffffffffffffffffff1673ffffffffffffffffffffffffffffffffffffffff167fc63a1af9370a721075a81436ad0aff90da703ecd614033082ce7fc756ffc7cef6122c2610af6565b6040516122cf91906128bd565b60405180910390a35050565b600660029054906101000a900473ffffffffffffffffffffffffffffffffffffffff1681565b6000818361230f91906128f5565b905092915050565b604051806101400160405280600073ffffffffffffffffffffffffffffffffffffffff168152602001600073ffffffffffffffffffffffffffffffffffffffff16815260200160008152602001600015158152602001600015158152602001600015158152602001600015158152602001600015158152602001600015158152602001600073ffffffffffffffffffffffffffffffffffffffff1681525090565b6123c18161294f565b82525050565b6123d08161294f565b82525050565b6123df81612961565b82525050565b60006123f26022836128e4565b91506123fd82612a0f565b604082019050919050565b60006124156030836128e4565b915061242082612a5e565b604082019050919050565b6000612438601e836128e4565b915061244382612aad565b602082019050919050565b600061245b6036836128e4565b915061246682612ad6565b604082019050919050565b600061247e6040836128e4565b915061248982612b25565b604082019050919050565b60006124a16026836128e4565b91506124ac82612b74565b604082019050919050565b60006124c4602c836128e4565b91506124cf82612bc3565b604082019050919050565b60006124e76029836128e4565b91506124f282612c12565b604082019050919050565b600061250a6016836128e4565b915061251582612c61565b602082019050919050565b600061252d6013836128e4565b915061253882612c8a565b602082019050919050565b60006125506000836128d9565b915061255b82612cb3565b600082019050919050565b60006125736010836128e4565b915061257e82612cb6565b602082019050919050565b60006125966033836128e4565b91506125a182612cdf565b604082019050919050565b60006125b96022836128e4565b91506125c482612d2e565b604082019050919050565b60006125dc602c836128e4565b91506125e782612d7d565b604082019050919050565b6101408201600082015161260960008501826123b8565b50602082015161261c60208501826123b8565b50604082015161262f60408501826126be565b50606082015161264260608501826123d6565b50608082015161265560808501826123d6565b5060a082015161266860a08501826123d6565b5060c082015161267b60c08501826123d6565b5060e082015161268e60e08501826123d6565b506101008201516126a36101008501826123d6565b506101208201516126b86101208501826123b8565b50505050565b6126c78161298d565b82525050565b60006126d882612543565b9150819050919050565b60006020820190506126f760008301846123c7565b92915050565b60006020820190508181036000830152612716816123e5565b9050919050565b6000602082019050818103600083015261273681612408565b9050919050565b600060208201905081810360008301526127568161242b565b9050919050565b600060208201905081810360008301526127768161244e565b9050919050565b6000602082019050818103600083015261279681612471565b9050919050565b600060208201905081810360008301526127b681612494565b9050919050565b600060208201905081810360008301526127d6816124b7565b9050919050565b600060208201905081810360008301526127f6816124da565b9050919050565b60006020820190508181036000830152612816816124fd565b9050919050565b6000602082019050818103600083015261283681612520565b9050919050565b6000602082019050818103600083015261285681612566565b9050919050565b6000602082019050818103600083015261287681612589565b9050919050565b60006020820190508181036000830152612896816125ac565b9050919050565b600060208201905081810360008301526128b6816125cf565b9050919050565b6000610140820190506128d360008301846125f2565b92915050565b600081905092915050565b600082825260208201905092915050565b60006129008261298d565b915061290b8361298d565b9250817fffffffffffffffffffffffffffffffffffffffffffffffffffffffffffffffff0483118215151615612944576129436129e0565b5b828202905092915050565b600061295a8261296d565b9050919050565b60008115159050919050565b600073ffffffffffffffffffffffffffffffffffffffff82169050919050565b6000819050919050565b60006129a28261298d565b91507fffffffffffffffffffffffffffffffffffffffffffffffffffffffffffffffff8214156129d5576129d46129e0565b5b600182019050919050565b7f4e487b7100000000000000000000000000000000000000000000000000000000600052601160045260246000fd5b7f4e6f7420656e6f756768206574686572206c65667420746f207769746864726160008201527f772e000000000000000000000000000000000000000000000000000000000000602082015250565b7f50617274792068617320616c72656164792069737375656420612063616e636560008201527f6c6c6174696f6e20726571756573742e00000000000000000000000000000000602082015250565b7f496e636f7272656374207374616b696e6720616d6f756e742073656e742e0000600082015250565b7f46756e6374696f6e2063616e206f6e6c7920626520696e766f6b65642062792060008201527f70617274696369706174696e6720706172746965732e00000000000000000000602082015250565b7f43616e6e6f7420636f6e6669726d206173206174206c65617374206f6e65207060008201527f6172747920686173207265717565737465642063616e63656c6c6174696f6e2e602082015250565b7f506172747920646f6573206e6f74206861766520616e7920616d6f756e74207360008201527f74616b65642e0000000000000000000000000000000000000000000000000000602082015250565b7f436f6e74726163742073746174757320646f6573206e6f74207065726d69742060008201527f7468697320616374696f6e2e0000000000000000000000000000000000000000602082015250565b7f46756e6374696f6e2063616e206f6e6c7920626520696e766f6b65642062792060008201527f7468652062757965720000000000000000000000000000000000000000000000602082015250565b7f436f6e7472616374206973206e6f742061637469766500000000000000000000600082015250565b7f5472616e7366657220686173206661696c656400000000000000000000000000600082015250565b50565b7f5472616e73666572206661696c65642e00000000000000000000000000000000600082015250565b7f506172747920646f65736e2774206861766520612063616e63656c6c6174696f60008201527f6e207265717565737420746f207265766f6b6500000000000000000000000000602082015250565b7f4e6f7420656e6f756768206574686572206c65667420746f2067697665206f7560008201527f742e000000000000000000000000000000000000000000000000000000000000602082015250565b7f50617274792068617320616c7265616479207374616b65642074686520636f7260008201527f7265637420616d6f756e742e000000000000000000000000000000000000000060208201525056fea2646970667358221220625f79e234cc30fcf625b1ace98542ab4b2316c0df843405f9b26bf28dd8be9c64736f6c63430008040033",
  "linkReferences": {},
  "deployedLinkReferences": {}
}